{
  "contractName": "BigGamble",
  "abi": [
    {
      "constant": true,
      "inputs": [],
      "name": "totalBetAmountPlaced",
      "outputs": [
        {
          "name": "",
          "type": "uint256"
        }
      ],
      "payable": false,
      "stateMutability": "view",
      "type": "function"
    },
    {
      "constant": true,
      "inputs": [],
      "name": "numberOfBets",
      "outputs": [
        {
          "name": "",
          "type": "uint256"
        }
      ],
      "payable": false,
      "stateMutability": "view",
      "type": "function"
    },
    {
      "constant": true,
      "inputs": [],
      "name": "ethToWei",
      "outputs": [
        {
          "name": "",
          "type": "uint256"
        }
      ],
      "payable": false,
      "stateMutability": "view",
      "type": "function"
    },
    {
      "inputs": [],
      "payable": false,
      "stateMutability": "nonpayable",
      "type": "constructor"
    },
    {
      "anonymous": false,
      "inputs": [
        {
          "indexed": false,
          "name": "wizardId",
          "type": "uint256"
        },
        {
          "indexed": false,
          "name": "totalBetters",
          "type": "uint256"
        },
        {
          "indexed": false,
          "name": "wizardTotalBet",
          "type": "uint256"
        },
        {
          "indexed": false,
          "name": "totalBetPlaced",
          "type": "uint256"
        },
        {
          "indexed": false,
          "name": "player",
          "type": "address"
        },
        {
          "indexed": false,
          "name": "betAmountOnwizard",
          "type": "uint256"
        }
      ],
      "name": "detailsOnLoad",
      "type": "event"
    },
    {
      "anonymous": false,
      "inputs": [
        {
          "indexed": false,
          "name": "wizardId",
          "type": "uint256"
        },
        {
          "indexed": false,
          "name": "transferAmount",
          "type": "uint256"
        },
        {
          "indexed": false,
          "name": "playerAddress",
          "type": "address"
        }
      ],
      "name": "finalWinner",
      "type": "event"
    },
    {
      "anonymous": false,
      "inputs": [
        {
          "indexed": false,
          "name": "remainder",
          "type": "uint256"
        },
        {
          "indexed": false,
          "name": "quotient",
          "type": "uint256"
        }
      ],
      "name": "returnValue",
      "type": "event"
    },
    {
      "anonymous": false,
      "inputs": [
        {
          "indexed": false,
          "name": "wizardId",
          "type": "uint256"
        },
        {
          "indexed": false,
          "name": "wizardTotalBet",
          "type": "uint256"
        }
      ],
      "name": "throwWizardInfo",
      "type": "event"
    },
    {
      "constant": true,
      "inputs": [
        {
          "name": "playerAddress",
          "type": "address"
        }
      ],
      "name": "checkPlayerExists",
      "outputs": [
        {
          "name": "",
          "type": "bool"
        }
      ],
      "payable": false,
      "stateMutability": "view",
      "type": "function"
    },
    {
      "constant": false,
      "inputs": [
        {
          "name": "userAddress",
          "type": "address"
        },
        {
          "name": "selectedWizard",
          "type": "uint256"
        },
        {
          "name": "betAmt",
          "type": "uint256"
        },
        {
          "name": "wizardPower",
          "type": "uint256"
        },
        {
          "name": "tPWizards",
          "type": "uint256"
        },
        {
          "name": "wizardSOT",
          "type": "uint256"
        },
        {
          "name": "wizardTOB",
          "type": "uint256"
        }
      ],
      "name": "joinTournamentByBet",
      "outputs": [],
      "payable": true,
      "stateMutability": "payable",
      "type": "function"
    },
    {
      "constant": true,
      "inputs": [
        {
          "name": "wizardSOT",
          "type": "uint256"
        },
        {
          "name": "wizardTOB",
          "type": "uint256"
        }
      ],
      "name": "calculateWizardRatio",
      "outputs": [
        {
          "name": "",
          "type": "uint256"
        }
      ],
      "payable": false,
      "stateMutability": "pure",
      "type": "function"
    },
    {
      "constant": false,
      "inputs": [
        {
          "name": "numerator",
          "type": "uint256"
        },
        {
          "name": "denominator",
          "type": "uint256"
        }
      ],
      "name": "getDivided",
      "outputs": [],
      "payable": false,
      "stateMutability": "nonpayable",
      "type": "function"
    },
    {
      "constant": true,
      "inputs": [
        {
          "name": "numerator",
          "type": "uint256"
        },
        {
          "name": "denominator",
          "type": "uint256"
        },
        {
          "name": "precision",
          "type": "uint256"
        }
      ],
      "name": "percent",
      "outputs": [
        {
          "name": "quotient",
          "type": "uint256"
        }
      ],
      "payable": false,
      "stateMutability": "pure",
      "type": "function"
    },
    {
      "constant": true,
      "inputs": [
        {
          "name": "wizardPower",
          "type": "uint256"
        },
        {
          "name": "tPWizards",
          "type": "uint256"
        }
      ],
      "name": "calculatePowerRatio",
      "outputs": [
        {
          "name": "",
          "type": "uint256"
        }
      ],
      "payable": false,
      "stateMutability": "pure",
      "type": "function"
    },
    {
      "constant": true,
      "inputs": [
        {
          "name": "betAmt",
          "type": "uint256"
        },
        {
          "name": "powerRatio",
          "type": "uint256"
        },
        {
          "name": "wizardRatio",
          "type": "uint256"
        }
      ],
      "name": "calculateStandardizedBet",
      "outputs": [
        {
          "name": "",
          "type": "uint256"
        }
      ],
      "payable": false,
      "stateMutability": "pure",
      "type": "function"
    },
    {
      "constant": true,
      "inputs": [
        {
          "name": "wizardId",
          "type": "uint256"
        }
      ],
      "name": "calculateTotalBetAmoutnOnThisWizard",
      "outputs": [
        {
          "name": "",
          "type": "uint256"
        }
      ],
      "payable": false,
      "stateMutability": "view",
      "type": "function"
    },
    {
      "constant": true,
      "inputs": [
        {
          "name": "wizardId",
          "type": "uint256"
        }
      ],
      "name": "calculateSsbFromTournamentWinningWizard",
      "outputs": [
        {
          "name": "",
          "type": "uint256"
        }
      ],
      "payable": false,
      "stateMutability": "view",
      "type": "function"
    },
    {
      "constant": false,
      "inputs": [],
      "name": "getContractBalance",
      "outputs": [
        {
          "name": "",
          "type": "uint256"
        }
      ],
      "payable": false,
      "stateMutability": "nonpayable",
      "type": "function"
    },
    {
      "constant": false,
      "inputs": [
        {
          "name": "wizardId",
          "type": "uint256"
        }
      ],
      "name": "distributePrizeMoney",
      "outputs": [],
      "payable": true,
      "stateMutability": "payable",
      "type": "function"
    },
    {
      "constant": false,
      "inputs": [
        {
          "name": "playerAddress",
          "type": "address"
        }
      ],
      "name": "getAllInfoOfAUser",
      "outputs": [],
      "payable": false,
      "stateMutability": "nonpayable",
      "type": "function"
    }
  ],
  "bytecode": "0x6080604052670de0b6b3a7640000600155600780546001600160a01b03191673b3e94487b8c4ef9169ebc2b9672a3222b8df401f17905534801561004257600080fd5b50610da2806100526000396000f3fe6080604052600436106100e75760003560e01c80636797bdea1161008a578063ab4613f711610059578063ab4613f7146102a3578063d9590869146102c0578063e4d030d6146102f6578063effd88b714610340576100e7565b80636797bdea1461022b5780636f9fb98a1461025b57806389dd6b491461022b5780638fd07ed014610270576100e7565b80632acdd191116100c65780632acdd191146101905780632ca8c6d3146101a55780634081d916146101ba57806355424b7b14610201576100e7565b80622c1a9e146100ec578063194d02d7146101345780631ebd06a414610166575b600080fd5b3480156100f857600080fd5b506101226004803603606081101561010f57600080fd5b5080359060208101359060400135610355565b60408051918252519081900360200190f35b34801561014057600080fd5b506101646004803603604081101561015757600080fd5b50803590602001356103b1565b005b34801561017257600080fd5b506101226004803603602081101561018957600080fd5b5035610408565b34801561019c57600080fd5b50610122610467565b3480156101b157600080fd5b5061012261046d565b3480156101c657600080fd5b506101ed600480360360208110156101dd57600080fd5b50356001600160a01b0316610473565b604080519115158252519081900360200190f35b34801561020d57600080fd5b506101226004803603602081101561022457600080fd5b50356104d6565b34801561023757600080fd5b506101226004803603604081101561024e57600080fd5b508035906020013561052c565b34801561026757600080fd5b50610122610541565b34801561027c57600080fd5b506101646004803603602081101561029357600080fd5b50356001600160a01b0316610596565b610164600480360360208110156102b957600080fd5b5035610669565b3480156102cc57600080fd5b50610122600480360360608110156102e357600080fd5b508035906020810135906040013561092d565b610164600480360360e081101561030c57600080fd5b506001600160a01b038135169060208101359060408101359060608101359060808101359060a08101359060c0013561094f565b34801561034c57600080fd5b50610122610cbd565b600080610363836001610cc3565b9050600a81810a60006103768883610cdc565b905060006103848289610cff565b90506000610393826005610cc3565b905060006103a282600a610cff565b9b9a5050505050505050505050565b60008183816103bc57fe5b60408051929091048481028603808452602084018290528251919450927f8fe96e8d5e837b807cffd7f8110110e2692b6f5b9f5774bc73b7213e319da57f92908290030190a150505050565b600080805b60008481526006602052604090205481101561045e57600084815260066020526040902080548290811061043d57fe5b6000918252602090912060026009909202010154919091019060010161040d565b5090505b919050565b60025481565b60005481565b6000805b6003548110156104cd57826001600160a01b03166003828154811061049857fe5b60009182526020909120600160099092020101546001600160a01b031614156104c5576001915050610462565b600101610477565b50600092915050565b600080805b60008481526006602052604090205481101561045e57600084815260066020526040902080548290811061050b57fe5b600091825260209091206007600990920201015491909101906001016104db565b6000806105398385610cff565b949350505050565b60003031801561058d576007546040516001600160a01b039091169082156108fc029083906000818181858888f19350505050158015610585573d6000803e3d6000fd5b509050610593565b60009150505b90565b60005b60035481101561066557816001600160a01b0316600382815481106105ba57fe5b60009182526020909120600160099092020101546001600160a01b0316141561065d577f62a5b882c2db0a8217982832b5577093c7df6ec63e060cc8e098cf5ec84f6efe6003828154811061060b57fe5b9060005260206000209060090201600001546106446003848154811061062d57fe5b906000526020600020906009020160000154610408565b6040805192835260208301919091528051918290030190a15b600101610599565b5050565b6007546001600160a01b031633146106cb5760408051600160e51b62461bcd02815260206004820152601060248201527f41646472657373206d69736d6174636800000000000000000000000000000000604482015290519081900360640190fd5b60006106d6826104d6565b90506103e8600254816106e557fe5b0460025560008281526006602052604090205461074d57600254600754604051670de0b6b3a7640000909202916001600160a01b039091169082156108fc029083906000818181858888f19350505050158015610746573d6000803e3d6000fd5b5050610665565b600254670de0b6b3a76400008102906064678ac7230489e800009091020480820360005b6000868152600660205260409020548110156108ea5760008681526006602052604081208054839081106107a157fe5b906000526020600020906009020160070154116107bd57600080fd5b600086815260066020526040812080546107f69190849081106107dc57fe5b906000526020600020906009020160070154876002610355565b60008881526006602052604090208054919250606485840204918490811061081a57fe5b600091825260208220600160099092020101546040516001600160a01b039091169183156108fc02918491818181858888f19350505050158015610862573d6000803e3d6000fd5b507f0fd38154181a7852bb7ccc85e2e076a5cbac71e9fcd82faeee02e095c88c39cd8882600660008c815260200190815260200160002086815481106108a457fe5b60009182526020918290206001600990920201015460408051948552918401929092526001600160a01b0390911682820152519081900360600190a15050600101610771565b506007546040516001600160a01b039091169083156108fc029084906000818181858888f19350505050158015610925573d6000803e3d6000fd5b505050505050565b60008061093a8484610cdc565b90506109468582610cdc565b95945050505050565b610957610d21565b506040805161012081018252600060a0820181905260c0820181905260e082018190526101008201526001600160a01b03891660208201529081018690526002805487018155878252606082018690524260808301526109ba9085908790610355565b60a08201526109cb82846002610355565b60c0820181905260a08201516109e39188919061092d565b60e08201526109f188610473565b15610a0c5760e0810151610100820180519091019052610a15565b60006101008201525b600087815260066020818152604080842080546001808201835591865283862087516009928302909101908155938701805185840180546001600160a01b03199081166001600160a01b03938416179091559489018051600288015560608a0180516003808a019190915560808c01805160048b015560a08d01805160058c015560c08e0180519c8c019c909c5560e08e01805160078d01556101008f0180516008909d019c909c558354998a018455928d528d517fc2575a0e9e593c00f959f8c92f12db2869c3395a3b0502d05e2516446f71f85b9990980298890188905595517fc2575a0e9e593c00f959f8c92f12db2869c3395a3b0502d05e2516446f71f85c89018054909a1695169490941790975590517fc2575a0e9e593c00f959f8c92f12db2869c3395a3b0502d05e2516446f71f85d860155517fc2575a0e9e593c00f959f8c92f12db2869c3395a3b0502d05e2516446f71f85e850155517fc2575a0e9e593c00f959f8c92f12db2869c3395a3b0502d05e2516446f71f85f840155517fc2575a0e9e593c00f959f8c92f12db2869c3395a3b0502d05e2516446f71f86083015593517fc2575a0e9e593c00f959f8c92f12db2869c3395a3b0502d05e2516446f71f86182015590517fc2575a0e9e593c00f959f8c92f12db2869c3395a3b0502d05e2516446f71f86282015590517fc2575a0e9e593c00f959f8c92f12db2869c3395a3b0502d05e2516446f71f86390910155610c3990610408565b825160008a81526006602090815260409182902054600254828801518489015185519687529386019290925284840186905260608501526001600160a01b0316608084015260a0830152519192507f03b58199c317c5840c831661c031b16124443ab96826ccbfc6de116e86a391d0919081900360c00190a1505050505050505050565b60015481565b600082820183811015610cd557600080fd5b9392505050565b6000828202831580610cf6575082848281610cf357fe5b04145b610cd557600080fd5b6000808211610d0d57600080fd5b6000828481610d1857fe5b04949350505050565b6040518061012001604052806000815260200160006001600160a01b0316815260200160008152602001600081526020016000815260200160008152602001600081526020016000815260200160008152509056fea165627a7a7230582016e609675e81371c3c1c9d42bf3a3ed0215a524edc66d2fe05661a508915145e0029",
  "source": "pragma solidity >=0.4.22 <0.6.0;\ncontract BigGamble{\n\n    // bool public prizeDistributed = false;\n \n    uint256 public numberOfBets;\n    uint256 public ethToWei = 1000000000000000000;\n    uint256 public totalBetAmountPlaced;\n    struct bettor {\n        uint selectedWizardId;\n        address payable player;\n        uint betAmt;\n        uint wizardPower;\n        uint betTimeStamp;\n        uint powerRation;\n        uint wizardRatio;\n        uint standardizedBet;\n        uint sSB;\n       \n    }\n    bettor[] private bettorInfo;\n    \n    struct winnerDetails {\n        bool claimStatus;\n        address payable winnerAddress;\n        uint winningAmt;\n    }\n   // winnerDetails[] public winnerDets;\n    mapping (address => winnerDetails) private winnerInfo;\n    address[] private winnerAddresses;\n    event detailsOnLoad(uint wizardId,uint totalBetters,uint wizardTotalBet,uint totalBetPlaced,address player, uint betAmountOnwizard);\n\n    event finalWinner(uint wizardId,uint transferAmount,address playerAddress);\n   \n    event returnValue(uint remainder,uint quotient);\n    // Address of the player and => the user info\n    mapping (uint => bettor[]) private getInfo;\n\n    event throwWizardInfo(uint wizardId,uint wizardTotalBet);\n    // address of the developer to receive developer commission.\n    address payable private developer = 0xb3e94487b8C4eF9169Ebc2b9672a3222b8df401f;\n    constructor() public{\n       \n    }\n\n    function mul(uint256 a, uint256 b) internal pure returns (uint256) \n    {\n    uint256 c = a * b;\n    require(a == 0 || c / a == b);\n    return c;\n    }\n    function div(uint256 a, uint256 b) internal pure returns (uint256) \n    {\n    // assert(b > 0); // Solidity automatically throws when dividing by 0\n    require(b>0);\n    uint256 c = a / b;\n    // assert(a == b * c + a % b); // There is no case in which this doesn't hold\n    return c;\n    }\n    function sub(uint256 a, uint256 b) internal pure returns (uint256) \n    {\n    assert(b <= a);\n    return a - b;\n    }\n    function add(uint256 a, uint256 b) internal pure returns (uint256) \n    {\n    uint256 c = a + b;\n    require(c >= a);\n    return c;\n    }\n\n    function checkPlayerExists(address playerAddress) public view returns(bool){\n      for(uint256 i = 0; i < bettorInfo.length; i++){\n         if(bettorInfo[i].player == playerAddress) return true;\n      }\n      return false;\n   }\n   \n    function joinTournamentByBet(address payable userAddress,uint selectedWizard, uint betAmt,uint wizardPower,uint tPWizards,uint wizardSOT,uint wizardTOB) public payable{\n       \n       \n        // Need to add wizard information..\n        bettor memory bInfo = bettor(0,address(0),0,0,0,0,0,0,0);\n        bInfo.player = userAddress;\n        bInfo.betAmt = betAmt;\n        totalBetAmountPlaced += betAmt;\n        bInfo.selectedWizardId = selectedWizard;\n        bInfo.wizardPower = wizardPower;\n        bInfo.betTimeStamp = now;\n        bInfo.powerRation = percent(tPWizards,wizardPower,2);\n        bInfo.wizardRatio = percent(wizardTOB,wizardSOT,2);\n        bInfo.standardizedBet = calculateStandardizedBet(betAmt,bInfo.powerRation,bInfo.wizardRatio);\n        if (checkPlayerExists(userAddress)){\n           \n          bInfo.sSB += bInfo.standardizedBet;  \n        }\n        else{\n           bInfo.sSB = 0;\n           \n        }\n       \n        getInfo[selectedWizard].push(bInfo);\n        bettorInfo.push(bInfo);\n        uint totalBetAmountOnThisWizard = calculateTotalBetAmoutnOnThisWizard(bInfo.selectedWizardId);\n\n        emit detailsOnLoad(bInfo.selectedWizardId,getInfo[selectedWizard].length,totalBetAmountOnThisWizard,totalBetAmountPlaced,bInfo.player,bInfo.betAmt);\n\n    }\n    function calculateWizardRatio(uint wizardSOT,uint wizardTOB) public pure returns(uint){\n        uint twizardRatio = div(wizardTOB,wizardSOT);\n        return twizardRatio;\n    }\n\n    function getDivided(uint numerator, uint denominator) public {\n       uint quotient  = numerator / denominator;\n       uint remainder = numerator - denominator * quotient;\n        emit returnValue(remainder,quotient);\n    }\n\n    function percent(uint numerator, uint denominator, uint precision) public pure returns(uint quotient) {\n\n         // caution, check safe-to-multiply here\n    uint256 pre = add(precision,1);\n//  require(pre > 0);\n    uint256 mulNo = 10;\n    uint256 Exponentiation= mulNo**uint256(pre);\n    uint _numerator  = mul(numerator,Exponentiation);\n        // with rounding of last digit\n    uint256 div_numerator = div(_numerator , denominator);\n    uint256 add_number = add(div_numerator,5);\n    uint _quotient =  div(add_number,10);\n       // uint _quotient =  ((_numerator / denominator) + 5) / 10;\n        return ( _quotient);\n    }\n\n    function calculatePowerRatio(uint wizardPower,uint tPWizards) public pure returns(uint){\n         uint tpowerRatio = div(tPWizards,wizardPower);\n        return tpowerRatio;\n    }\n   \n    function calculateStandardizedBet(uint betAmt,uint powerRatio,uint wizardRatio) public pure returns(uint){\n       \n     //  uint256 result = mod()\n         uint256 Ratio = mul(powerRatio,wizardRatio);\n     return mul(betAmt,Ratio);\n    }\n   \n   \n    function calculateTotalBetAmoutnOnThisWizard(uint wizardId) public view returns(uint) {\n        uint totalBetOnthisWizard;\n        for (uint i = 0;i< getInfo[wizardId].length;i++){\n         totalBetOnthisWizard += getInfo[wizardId][i].betAmt;\n        }\n        return totalBetOnthisWizard;\n    }\n   function calculateSsbFromTournamentWinningWizard(uint wizardId) public view returns(uint) {\n       \n       uint sumOfAllSsb;\n       for (uint i=0;i< getInfo[wizardId].length;i++){\n          sumOfAllSsb += getInfo[wizardId][i].standardizedBet;\n       }\n       return sumOfAllSsb;\n   }\n   /*\n   function returnTournamentWinnerAddress(uint256 wizardId) public view returns(address[] memory , uint[] memory, bool[] memory){\n    \n    uint sumOfAllSsb = calculateSsbFromTournamentWinningWizard(wizardId);\n    uint total_ether = totalBetAmountPlaced*ethToWei; //\n        //commision\n        uint commision = (total_ether*10)/100;\n        //Reward for players to split\n        uint total_rewards = total_ether - commision;\n    \n    address[] memory addrs = new address[](getInfo[wizardId].length);\n    uint[] memory winningAmt = new uint[](getInfo[wizardId].length);\n    bool[] memory claimStatusChk = new bool[](getInfo[wizardId].length);\n    \n    for (uint i=0;i<getInfo[wizardId].length;i++){\n            require(getInfo[wizardId][i].standardizedBet > 0);\n            uint256 getActualAmt = percent(getInfo[wizardId][i].standardizedBet,sumOfAllSsb,2);\n            uint256 transferAmount = total_rewards*getActualAmt/100;\n            addrs[i] = getInfo[wizardId][i].player;\n            winningAmt[i] = transferAmount;\n            claimStatusChk[i] = winnerInfo[addrs[i]].claimStatus;\n    //      getInfo[wizardId][i].player.transfer(transferAmount);\n       //   emit finalWinner(wizardId,transferAmount,getInfo[wizardId][i].player);\n        }\n    return (addrs, winningAmt, claimStatusChk);\n       \n   }\n   \n   function withdrawFunds(uint winningAmt,uint userbalance, address payable winnerPlayerAdrs) public onlyOwner payable returns(bool success) {   \n    require(userbalance >= winningAmt); // guards up front\n    // balances[msg.sender] -= amount;         // optimistic accounting\n    winnerPlayerAdrs.transfer(winningAmt);            // transfer\n    winnerInfo[msg.sender].claimStatus = true;\n    winnerInfo[msg.sender].winnerAddress = msg.sender;\n    winnerAddresses.push(msg.sender);\n    return true;\n}\n*/\n    function getContractBalance() public returns(uint256)\n    {\n        uint256 contractbalval = address(this).balance;//retuns wei\n        if(contractbalval>0){\n            developer.transfer(contractbalval);\n            return contractbalval;\n        }else{\n            return 0;\n        }\n    }\n\n\n    function distributePrizeMoney(uint256 wizardId) public payable{\n     require(developer == msg.sender,\"Address mismatch\");\n     uint sumOfAllSsb = calculateSsbFromTournamentWinningWizard(wizardId);   \n     totalBetAmountPlaced=totalBetAmountPlaced/1000;\n    if (getInfo[wizardId].length == 0){\n         uint total_ether = totalBetAmountPlaced*1000000000000000000;\n        developer.transfer(total_ether);\n        // prizeDistributed = true;\n    }\n    else{\n        //  if (!prizeDistributed){\n             \n        // uint sumOfAllSsb = calculateSsbFromTournamentWinningWizard(wizardId);\n        uint total_ether = totalBetAmountPlaced*1000000000000000000; //\n        //commision\n        uint commision = (total_ether*10)/100;\n        //Reward for players to split\n        uint total_rewards = total_ether - commision;\n\n        for (uint i=0;i<getInfo[wizardId].length;i++){\n            require(getInfo[wizardId][i].standardizedBet > 0);\n            uint256 getActualAmt = percent(getInfo[wizardId][i].standardizedBet,sumOfAllSsb,2);\n            uint256 transferAmount = total_rewards*getActualAmt/100;\n          getInfo[wizardId][i].player.transfer(transferAmount);\n          emit finalWinner(wizardId,transferAmount,getInfo[wizardId][i].player);\n        }\n        developer.transfer(commision);\n        \n        // prizeDistributed = true;\n    //   }\n    }\n       \n    }\n   \n    function getAllInfoOfAUser(address playerAddress) public \n    {   \n       for (uint i = 0;i< bettorInfo.length;i++){\n        if (bettorInfo[i].player == playerAddress) {\n            emit throwWizardInfo(bettorInfo[i].selectedWizardId,calculateTotalBetAmoutnOnThisWizard(bettorInfo[i].selectedWizardId));\n        }\n       }\n   }\n\n   \n}",
  "sourcePath": "/Users/arunraj/Desktop/BigCheezeGamble/contracts/BigGamble.sol",
  "compiler": {
    "name": "solc",
    "version": "0.5.8+commit.23d335f2.Emscripten.clang"
  },
  "schemaVersion": "3.0.16",
  "updatedAt": "2019-10-24T06:53:06.237Z",
  "devdoc": {
    "methods": {}
  },
  "userdoc": {
    "methods": {}
  }
}