{
  "contractName": "BigGamble",
  "abi": [
    {
      "constant": true,
      "inputs": [],
      "name": "numberOfBets",
      "outputs": [
        {
          "name": "",
          "type": "uint256"
        }
      ],
      "payable": false,
      "stateMutability": "view",
      "type": "function"
    },
    {
      "constant": true,
      "inputs": [],
      "name": "totalBetAmount",
      "outputs": [
        {
          "name": "",
          "type": "uint256"
        }
      ],
      "payable": false,
      "stateMutability": "view",
      "type": "function"
    },
    {
      "constant": true,
      "inputs": [
        {
          "name": "",
          "type": "uint256"
        }
      ],
      "name": "bettorInfo",
      "outputs": [
        {
          "name": "selectedWizardId",
          "type": "uint256"
        },
        {
          "name": "player",
          "type": "address"
        },
        {
          "name": "betAmt",
          "type": "uint256"
        },
        {
          "name": "wizardPower",
          "type": "uint256"
        },
        {
          "name": "betTimeStamp",
          "type": "uint256"
        },
        {
          "name": "powerRation",
          "type": "uint256"
        },
        {
          "name": "wizardRatio",
          "type": "uint256"
        },
        {
          "name": "standardizedBet",
          "type": "uint256"
        },
        {
          "name": "sSB",
          "type": "uint256"
        }
      ],
      "payable": false,
      "stateMutability": "view",
      "type": "function"
    },
    {
      "inputs": [],
      "payable": false,
      "stateMutability": "nonpayable",
      "type": "constructor"
    },
    {
      "anonymous": false,
      "inputs": [
        {
          "indexed": false,
          "name": "wizardId",
          "type": "uint256"
        },
        {
          "indexed": false,
          "name": "totalBetters",
          "type": "uint256"
        },
        {
          "indexed": false,
          "name": "wizardTotalBet",
          "type": "uint256"
        }
      ],
      "name": "detailsOnLoad",
      "type": "event"
    },
    {
      "constant": true,
      "inputs": [
        {
          "name": "playerAddress",
          "type": "address"
        }
      ],
      "name": "checkPlayerExists",
      "outputs": [
        {
          "name": "",
          "type": "bool"
        }
      ],
      "payable": false,
      "stateMutability": "view",
      "type": "function"
    },
    {
      "constant": false,
      "inputs": [
        {
          "name": "userAddress",
          "type": "address"
        },
        {
          "name": "selectedWizard",
          "type": "uint256"
        },
        {
          "name": "betAmt",
          "type": "uint256"
        },
        {
          "name": "wizardPower",
          "type": "uint256"
        },
        {
          "name": "tPWizards",
          "type": "uint256"
        },
        {
          "name": "wizardSOT",
          "type": "uint256"
        },
        {
          "name": "wizardTOB",
          "type": "uint256"
        }
      ],
      "name": "joinTournamentByBet",
      "outputs": [],
      "payable": true,
      "stateMutability": "payable",
      "type": "function"
    },
    {
      "constant": true,
      "inputs": [
        {
          "name": "wizardSOT",
          "type": "uint256"
        },
        {
          "name": "wizardTOB",
          "type": "uint256"
        }
      ],
      "name": "calculatePowerRation",
      "outputs": [
        {
          "name": "",
          "type": "uint256"
        }
      ],
      "payable": false,
      "stateMutability": "pure",
      "type": "function"
    },
    {
      "constant": true,
      "inputs": [
        {
          "name": "wizardPower",
          "type": "uint256"
        },
        {
          "name": "tPWizards",
          "type": "uint256"
        }
      ],
      "name": "calculateWizardRation",
      "outputs": [
        {
          "name": "",
          "type": "uint256"
        }
      ],
      "payable": false,
      "stateMutability": "pure",
      "type": "function"
    },
    {
      "constant": true,
      "inputs": [
        {
          "name": "betAmt",
          "type": "uint256"
        },
        {
          "name": "powerRatio",
          "type": "uint256"
        },
        {
          "name": "wizardRatio",
          "type": "uint256"
        }
      ],
      "name": "calculateStandardizedBet",
      "outputs": [
        {
          "name": "",
          "type": "uint256"
        }
      ],
      "payable": false,
      "stateMutability": "pure",
      "type": "function"
    },
    {
      "constant": true,
      "inputs": [
        {
          "name": "wizardId",
          "type": "uint256"
        }
      ],
      "name": "calculateTotalBetAmoutnOnThisWizard",
      "outputs": [
        {
          "name": "",
          "type": "uint256"
        }
      ],
      "payable": false,
      "stateMutability": "view",
      "type": "function"
    },
    {
      "constant": false,
      "inputs": [],
      "name": "distributePrizeMoney",
      "outputs": [],
      "payable": true,
      "stateMutability": "payable",
      "type": "function"
    }
  ],
  "bytecode": "0x60806040527383ceb829c30958cb97f3ac99d0e05b811cc846f1600460006101000a81548173ffffffffffffffffffffffffffffffffffffffff021916908373ffffffffffffffffffffffffffffffffffffffff16021790555034801561006557600080fd5b50610b56806100756000396000f3fe6080604052600436106100915760003560e01c8063721e874211610059578063721e8742146101fd578063bef7e4dc146102b0578063d0342d6514610309578063d959086914610313578063e4d030d61461037657610091565b80631ebd06a4146100965780632ca8c6d3146100e55780634081d916146101105780634dd600c914610179578063613f4594146101d2575b600080fd5b3480156100a257600080fd5b506100cf600480360360208110156100b957600080fd5b81019080803590602001909291905050506103f6565b6040518082815260200191505060405180910390f35b3480156100f157600080fd5b506100fa610468565b6040518082815260200191505060405180910390f35b34801561011c57600080fd5b5061015f6004803603602081101561013357600080fd5b81019080803573ffffffffffffffffffffffffffffffffffffffff16906020019092919050505061046e565b604051808215151515815260200191505060405180910390f35b34801561018557600080fd5b506101bc6004803603604081101561019c57600080fd5b810190808035906020019092919080359060200190929190505050610517565b6040518082815260200191505060405180910390f35b3480156101de57600080fd5b506101e7610530565b6040518082815260200191505060405180910390f35b34801561020957600080fd5b506102366004803603602081101561022057600080fd5b8101908080359060200190929190505050610536565b604051808a81526020018973ffffffffffffffffffffffffffffffffffffffff1673ffffffffffffffffffffffffffffffffffffffff168152602001888152602001878152602001868152602001858152602001848152602001838152602001828152602001995050505050505050505060405180910390f35b3480156102bc57600080fd5b506102f3600480360360408110156102d357600080fd5b8101908080359060200190929190803590602001909291905050506105b1565b6040518082815260200191505060405180910390f35b6103116105ca565b005b34801561031f57600080fd5b506103606004803603606081101561033657600080fd5b81019080803590602001909291908035906020019092919080359060200190929190505050610759565b6040518082815260200191505060405180910390f35b6103f4600480360360e081101561038c57600080fd5b81019080803573ffffffffffffffffffffffffffffffffffffffff169060200190929190803590602001909291908035906020019092919080359060200190929190803590602001909291908035906020019092919080359060200190929190505050610769565b005b60008060008090505b600360008581526020019081526020016000208054905081101561045e5760036000858152602001908152602001600020818154811061043b57fe5b9060005260206000209060090201600201548201915080806001019150506103ff565b5080915050919050565b60005481565b600080600090505b60028054905081101561050c578273ffffffffffffffffffffffffffffffffffffffff16600282815481106104a757fe5b906000526020600020906009020160010160009054906101000a900473ffffffffffffffffffffffffffffffffffffffff1673ffffffffffffffffffffffffffffffffffffffff1614156104ff576001915050610512565b8080600101915050610476565b50600090505b919050565b60008083838161052357fe5b0490508091505092915050565b60015481565b6002818154811061054357fe5b90600052602060002090600902016000915090508060000154908060010160009054906101000a900473ffffffffffffffffffffffffffffffffffffffff16908060020154908060030154908060040154908060050154908060060154908060070154908060080154905089565b6000808383816105bd57fe5b0490508091505092915050565b6000600154905060006064600a8302816105e057fe5b0490506000818303905060008090505b6002805490508110156106e15760006002828154811061060c57fe5b9060005260206000209060090201600801546002838154811061062b57fe5b9060005260206000209060090201600701548161064457fe5b04830290506002828154811061065657fe5b906000526020600020906009020160010160009054906101000a900473ffffffffffffffffffffffffffffffffffffffff1673ffffffffffffffffffffffffffffffffffffffff166108fc6298968083029081150290604051600060405180830381858888f193505050501580156106d2573d6000803e3d6000fd5b505080806001019150506105f0565b50600460009054906101000a900473ffffffffffffffffffffffffffffffffffffffff1673ffffffffffffffffffffffffffffffffffffffff166108fc66038d7ea4c6800084029081150290604051600060405180830381858888f19350505050158015610753573d6000803e3d6000fd5b50505050565b6000818385020290509392505050565b610771610ac8565b60405180610120016040528060008152602001600073ffffffffffffffffffffffffffffffffffffffff1681526020016000815260200160008152602001600081526020016000815260200160008152602001600081526020016000815250905087816020019073ffffffffffffffffffffffffffffffffffffffff16908173ffffffffffffffffffffffffffffffffffffffff1681525050858160400181815250508560016000828254019250508190555086816000018181525050848160600181815250504281608001818152505061084c8383610517565b8160a001818152505061085f85856105b1565b8160c001818152505061087b868260a001518360c00151610759565b8160e001818152505061088d8861046e565b156108ac578060e00151816101000181815101915081815250506108b9565b6000816101000181815250505b6003600088815260200190815260200160002081908060018154018082558091505090600182039060005260206000209060090201600090919290919091506000820151816000015560208201518160010160006101000a81548173ffffffffffffffffffffffffffffffffffffffff021916908373ffffffffffffffffffffffffffffffffffffffff16021790555060408201518160020155606082015181600301556080820151816004015560a0820151816005015560c0820151816006015560e082015181600701556101008201518160080155505050600281908060018154018082558091505090600182039060005260206000209060090201600090919290919091506000820151816000015560208201518160010160006101000a81548173ffffffffffffffffffffffffffffffffffffffff021916908373ffffffffffffffffffffffffffffffffffffffff16021790555060408201518160020155606082015181600301556080820151816004015560a0820151816005015560c0820151816006015560e0820151816007015561010082015181600801555050506000610a6b82600001516103f6565b90507f5cad49e2761ad969641df03839e92e30d54c13d5c6578412c3eb0269f2c14c0a82600001516002805490508360405180848152602001838152602001828152602001935050505060405180910390a1505050505050505050565b60405180610120016040528060008152602001600073ffffffffffffffffffffffffffffffffffffffff16815260200160008152602001600081526020016000815260200160008152602001600081526020016000815260200160008152509056fea165627a7a7230582026084f8b2ebae6b1b1f393fd218b67c380100b167fcdbbf67ca6c0df7da84c840029",
  "source": "pragma solidity >=0.4.22 <0.6.0;\ncontract BigGamble {\n   \n    uint256 public numberOfBets;\n    uint256 public totalBetAmount;\n   \n    struct bettor {\n        uint selectedWizardId;\n        address payable player;\n        uint betAmt;\n        uint wizardPower;\n        uint betTimeStamp;\n        uint powerRation;\n        uint wizardRatio;\n        uint standardizedBet;\n        uint sSB;\n       \n    }\n    bettor[] public bettorInfo;\n    event detailsOnLoad(uint wizardId,uint totalBetters,uint wizardTotalBet);\n    // Address of the player and => the user info  \n    mapping (uint => bettor[]) getInfo;\n   \n    // address of the developer to receive developer commission.\n    address payable developer = 0x83ceb829c30958CB97f3ac99d0e05B811cc846f1;\n    constructor() public{\n       \n    }\n   \n    function checkPlayerExists(address playerAddress) public view returns(bool){\n      for(uint256 i = 0; i < bettorInfo.length; i++){\n         if(bettorInfo[i].player == playerAddress) return true;\n      }\n      return false;\n   }\n   \n    function joinTournamentByBet(address payable userAddress,uint selectedWizard, uint betAmt,uint wizardPower,uint tPWizards,uint wizardSOT,uint wizardTOB) public payable{\n       \n       \n        // Need to add wizard information..\n        bettor memory bInfo = bettor(0,address(0),0,0,0,0,0,0,0);\n        bInfo.player = userAddress;\n        bInfo.betAmt = betAmt;\n        totalBetAmount += betAmt;\n        bInfo.selectedWizardId = selectedWizard;\n        bInfo.wizardPower = wizardPower;\n        bInfo.betTimeStamp = now;\n        bInfo.powerRation = calculatePowerRation(wizardSOT,wizardTOB);\n        bInfo.wizardRatio = calculateWizardRation(wizardPower,tPWizards);\n        bInfo.standardizedBet = calculateStandardizedBet(betAmt,bInfo.powerRation,bInfo.wizardRatio);\n        if (checkPlayerExists(userAddress)){\n           \n          bInfo.sSB += bInfo.standardizedBet;  \n        }\n        else{\n           bInfo.sSB = 0;\n           \n        }\n       \n        getInfo[selectedWizard].push(bInfo);\n        bettorInfo.push(bInfo);\n        uint totalBetAmountOnThisWizard = calculateTotalBetAmoutnOnThisWizard(bInfo.selectedWizardId);\n       \n        emit detailsOnLoad(bInfo.selectedWizardId,bettorInfo.length,totalBetAmountOnThisWizard);\n       \n    }\n    function calculatePowerRation(uint wizardSOT,uint wizardTOB) public pure returns(uint){\n        uint tpowerRatio = wizardTOB/wizardSOT;\n        return tpowerRatio;\n    }\n   \n    function calculateWizardRation(uint wizardPower,uint tPWizards) public pure returns(uint){\n         uint twizardRatio = tPWizards/wizardPower;\n       \n        return twizardRatio;\n       \n    }\n   \n    function calculateStandardizedBet(uint betAmt,uint powerRatio,uint wizardRatio) public pure returns(uint){\n       \n        return betAmt*powerRatio*wizardRatio;\n    }\n   \n    function calculateTotalBetAmoutnOnThisWizard(uint wizardId) public view returns(uint) {\n        uint totalBetOnthisWizard;\n        for (uint i = 0;i< getInfo[wizardId].length;i++){\n         totalBetOnthisWizard += getInfo[wizardId][i].betAmt;\n        }\n        return totalBetOnthisWizard;\n    }\n   \n    function distributePrizeMoney() public payable{\n       \n        uint total_ether = totalBetAmount; //\n        //commision\n        uint commision = (total_ether*10)/100;\n        //Reward for players to split\n        uint total_rewards = total_ether - commision;\n       \n        for (uint i=0;i< bettorInfo.length;i++){\n            uint256 transferAmount = total_rewards*(bettorInfo[i].standardizedBet/bettorInfo[i].sSB);\n            bettorInfo[i].player.transfer(transferAmount*10000000);\n        }\n        developer.transfer(commision*1000000000000000);\n       \n       \n    }\n   \n   \n   \n   \n}",
  "sourcePath": "/Users/arunraj/Desktop/Bigcheeze/contracts/gamble.sol",
  "compiler": {
    "name": "solc",
    "version": "0.5.8+commit.23d335f2.Emscripten.clang"
  },
  "schemaVersion": "3.0.15",
  "updatedAt": "2019-09-16T02:18:48.145Z",
  "devdoc": {
    "methods": {}
  },
  "userdoc": {
    "methods": {}
  }
}