{
  "contractName": "BigGamble",
  "abi": [
    {
      "constant": true,
      "inputs": [],
      "name": "totalBetAmountPlaced",
      "outputs": [
        {
          "name": "",
          "type": "uint256"
        }
      ],
      "payable": false,
      "stateMutability": "view",
      "type": "function"
    },
    {
      "constant": true,
      "inputs": [],
      "name": "numberOfBets",
      "outputs": [
        {
          "name": "",
          "type": "uint256"
        }
      ],
      "payable": false,
      "stateMutability": "view",
      "type": "function"
    },
    {
      "constant": true,
      "inputs": [],
      "name": "prizeDistributed",
      "outputs": [
        {
          "name": "",
          "type": "bool"
        }
      ],
      "payable": false,
      "stateMutability": "view",
      "type": "function"
    },
    {
      "constant": true,
      "inputs": [
        {
          "name": "",
          "type": "uint256"
        }
      ],
      "name": "bettorInfo",
      "outputs": [
        {
          "name": "selectedWizardId",
          "type": "uint256"
        },
        {
          "name": "player",
          "type": "address"
        },
        {
          "name": "betAmt",
          "type": "uint256"
        },
        {
          "name": "wizardPower",
          "type": "uint256"
        },
        {
          "name": "betTimeStamp",
          "type": "uint256"
        },
        {
          "name": "powerRation",
          "type": "uint256"
        },
        {
          "name": "wizardRatio",
          "type": "uint256"
        },
        {
          "name": "standardizedBet",
          "type": "uint256"
        },
        {
          "name": "sSB",
          "type": "uint256"
        }
      ],
      "payable": false,
      "stateMutability": "view",
      "type": "function"
    },
    {
      "inputs": [],
      "payable": false,
      "stateMutability": "nonpayable",
      "type": "constructor"
    },
    {
      "anonymous": false,
      "inputs": [
        {
          "indexed": false,
          "name": "wizardId",
          "type": "uint256"
        },
        {
          "indexed": false,
          "name": "totalBetters",
          "type": "uint256"
        },
        {
          "indexed": false,
          "name": "wizardTotalBet",
          "type": "uint256"
        },
        {
          "indexed": false,
          "name": "totalBetPlaced",
          "type": "uint256"
        },
        {
          "indexed": false,
          "name": "player",
          "type": "address"
        },
        {
          "indexed": false,
          "name": "betAmountOnwizard",
          "type": "uint256"
        }
      ],
      "name": "detailsOnLoad",
      "type": "event"
    },
    {
      "anonymous": false,
      "inputs": [
        {
          "indexed": false,
          "name": "wizardId",
          "type": "uint256"
        },
        {
          "indexed": false,
          "name": "transferAmount",
          "type": "uint256"
        },
        {
          "indexed": false,
          "name": "playerAddress",
          "type": "address"
        }
      ],
      "name": "finalWinner",
      "type": "event"
    },
    {
      "anonymous": false,
      "inputs": [
        {
          "indexed": false,
          "name": "remainder",
          "type": "uint256"
        },
        {
          "indexed": false,
          "name": "quotient",
          "type": "uint256"
        }
      ],
      "name": "returnValue",
      "type": "event"
    },
    {
      "anonymous": false,
      "inputs": [
        {
          "indexed": false,
          "name": "wizardId",
          "type": "uint256"
        },
        {
          "indexed": false,
          "name": "wizardTotalBet",
          "type": "uint256"
        }
      ],
      "name": "throwWizardInfo",
      "type": "event"
    },
    {
      "constant": true,
      "inputs": [
        {
          "name": "playerAddress",
          "type": "address"
        }
      ],
      "name": "checkPlayerExists",
      "outputs": [
        {
          "name": "",
          "type": "bool"
        }
      ],
      "payable": false,
      "stateMutability": "view",
      "type": "function"
    },
    {
      "constant": false,
      "inputs": [
        {
          "name": "userAddress",
          "type": "address"
        },
        {
          "name": "selectedWizard",
          "type": "uint256"
        },
        {
          "name": "betAmt",
          "type": "uint256"
        },
        {
          "name": "wizardPower",
          "type": "uint256"
        },
        {
          "name": "tPWizards",
          "type": "uint256"
        },
        {
          "name": "wizardSOT",
          "type": "uint256"
        },
        {
          "name": "wizardTOB",
          "type": "uint256"
        }
      ],
      "name": "joinTournamentByBet",
      "outputs": [],
      "payable": true,
      "stateMutability": "payable",
      "type": "function"
    },
    {
      "constant": true,
      "inputs": [
        {
          "name": "wizardSOT",
          "type": "uint256"
        },
        {
          "name": "wizardTOB",
          "type": "uint256"
        }
      ],
      "name": "calculateWizardRatio",
      "outputs": [
        {
          "name": "",
          "type": "uint256"
        }
      ],
      "payable": false,
      "stateMutability": "pure",
      "type": "function"
    },
    {
      "constant": false,
      "inputs": [
        {
          "name": "numerator",
          "type": "uint256"
        },
        {
          "name": "denominator",
          "type": "uint256"
        }
      ],
      "name": "getDivided",
      "outputs": [],
      "payable": false,
      "stateMutability": "nonpayable",
      "type": "function"
    },
    {
      "constant": true,
      "inputs": [
        {
          "name": "numerator",
          "type": "uint256"
        },
        {
          "name": "denominator",
          "type": "uint256"
        },
        {
          "name": "precision",
          "type": "uint256"
        }
      ],
      "name": "percent",
      "outputs": [
        {
          "name": "quotient",
          "type": "uint256"
        }
      ],
      "payable": false,
      "stateMutability": "pure",
      "type": "function"
    },
    {
      "constant": true,
      "inputs": [
        {
          "name": "wizardPower",
          "type": "uint256"
        },
        {
          "name": "tPWizards",
          "type": "uint256"
        }
      ],
      "name": "calculatePowerRatio",
      "outputs": [
        {
          "name": "",
          "type": "uint256"
        }
      ],
      "payable": false,
      "stateMutability": "pure",
      "type": "function"
    },
    {
      "constant": true,
      "inputs": [
        {
          "name": "betAmt",
          "type": "uint256"
        },
        {
          "name": "powerRatio",
          "type": "uint256"
        },
        {
          "name": "wizardRatio",
          "type": "uint256"
        }
      ],
      "name": "calculateStandardizedBet",
      "outputs": [
        {
          "name": "",
          "type": "uint256"
        }
      ],
      "payable": false,
      "stateMutability": "pure",
      "type": "function"
    },
    {
      "constant": true,
      "inputs": [
        {
          "name": "wizardId",
          "type": "uint256"
        }
      ],
      "name": "calculateTotalBetAmoutnOnThisWizard",
      "outputs": [
        {
          "name": "",
          "type": "uint256"
        }
      ],
      "payable": false,
      "stateMutability": "view",
      "type": "function"
    },
    {
      "constant": false,
      "inputs": [
        {
          "name": "wizardId",
          "type": "uint256"
        }
      ],
      "name": "distributePrizeMoney",
      "outputs": [],
      "payable": true,
      "stateMutability": "payable",
      "type": "function"
    },
    {
      "constant": false,
      "inputs": [
        {
          "name": "playerAddress",
          "type": "address"
        }
      ],
      "name": "getAllInfoOfAUser",
      "outputs": [],
      "payable": false,
      "stateMutability": "nonpayable",
      "type": "function"
    }
  ],
  "bytecode": "0x60806040526000805460ff19169055600580546001600160a01b031916730334056f1da1f415bf410afbbcb087f120a5abe017905534801561004057600080fd5b50610c0a806100506000396000f3fe6080604052600436106100dc5760003560e01c80636797bdea1161007f5780638fd07ed0116100595780638fd07ed0146102b4578063ab4613f7146102e7578063d959086914610304578063e4d030d61461033a576100dc565b80636797bdea1461020b578063721e87421461023b57806389dd6b491461020b576100dc565b80632acdd191116100bb5780632acdd191146101855780632ca8c6d31461019a5780633c923600146101af5780634081d916146101d8576100dc565b80622c1a9e146100e1578063194d02d7146101295780631ebd06a41461015b575b600080fd5b3480156100ed57600080fd5b506101176004803603606081101561010457600080fd5b5080359060208101359060400135610384565b60408051918252519081900360200190f35b34801561013557600080fd5b506101596004803603604081101561014c57600080fd5b50803590602001356103b5565b005b34801561016757600080fd5b506101176004803603602081101561017e57600080fd5b503561040c565b34801561019157600080fd5b5061011761046b565b3480156101a657600080fd5b50610117610471565b3480156101bb57600080fd5b506101c4610477565b604080519115158252519081900360200190f35b3480156101e457600080fd5b506101c4600480360360208110156101fb57600080fd5b50356001600160a01b0316610480565b34801561021757600080fd5b506101176004803603604081101561022e57600080fd5b50803590602001356104e3565b34801561024757600080fd5b506102656004803603602081101561025e57600080fd5b50356104f8565b60408051998a526001600160a01b0390981660208a0152888801969096526060880194909452608087019290925260a086015260c085015260e084015261010083015251908190036101200190f35b3480156102c057600080fd5b50610159600480360360208110156102d757600080fd5b50356001600160a01b031661055a565b610159600480360360208110156102fd57600080fd5b503561062d565b34801561031057600080fd5b506101176004803603606081101561032757600080fd5b5080359060208101359060400135610814565b610159600480360360e081101561035057600080fd5b506001600160a01b038135169060208101359060408101359060608101359060808101359060a08101359060c0013561081a565b60008082600101600a0a850290506000600a85838161039f57fe5b04600501816103aa57fe5b049695505050505050565b60008183816103c057fe5b60408051929091048481028603808452602084018290528251919450927f8fe96e8d5e837b807cffd7f8110110e2692b6f5b9f5774bc73b7213e319da57f92908290030190a150505050565b600080805b60008481526004602052604090205481101561046257600084815260046020526040902080548290811061044157fe5b60009182526020909120600260099092020101549190910190600101610411565b5090505b919050565b60025481565b60015481565b60005460ff1681565b6000805b6003548110156104da57826001600160a01b0316600382815481106104a557fe5b60009182526020909120600160099092020101546001600160a01b031614156104d2576001915050610466565b600101610484565b50600092915050565b6000808383816104ef57fe5b04949350505050565b6003818154811061050557fe5b60009182526020909120600990910201805460018201546002830154600384015460048501546005860154600687015460078801546008909801549698506001600160a01b0390951696939592949193909289565b60005b60035481101561062957816001600160a01b03166003828154811061057e57fe5b60009182526020909120600160099092020101546001600160a01b03161415610621577f62a5b882c2db0a8217982832b5577093c7df6ec63e060cc8e098cf5ec84f6efe600382815481106105cf57fe5b906000526020600020906009020160000154610608600384815481106105f157fe5b90600052602060002090600902016000015461040c565b6040805192835260208301919091528051918290030190a15b60010161055d565b5050565b60005460ff16610811576002546064600a82020480820360005b600085815260046020526040902054600019018110156107bc57600085815260046020526040812080548390811061067b57fe5b9060005260206000209060090201600801546004600088815260200190815260200160002083815481106106ab57fe5b906000526020600020906009020160070154816106c457fe5b04830290506004600087815260200190815260200160002082815481106106e757fe5b600091825260208220600160099092020101546040516001600160a01b039091169162989680840280156108fc02929091818181858888f19350505050158015610735573d6000803e3d6000fd5b507f0fd38154181a7852bb7ccc85e2e076a5cbac71e9fcd82faeee02e095c88c39cd8682600460008a8152602001908152602001600020858154811061077757fe5b60009182526020918290206001600990920201015460408051948552918401929092526001600160a01b0390911682820152519081900360600190a150600101610647565b506005546040516001600160a01b039091169066038d7ea4c68000840280156108fc02916000818181858888f193505050501580156107ff573d6000803e3d6000fd5b50506000805460ff1916600117905550505b50565b91020290565b610822610b89565b506040805161012081018252600060a0820181905260c0820181905260e082018190526101008201526001600160a01b03891660208201529081018690526002805487018155878252606082018690524260808301526108859085908790610384565b60a082015261089682846002610384565b60c0820181905260a08201516108ae91889190610814565b60e08201526108bc88610480565b156108d75760e08101516101008201805190910190526108e0565b60006101008201525b600087815260046020818152604080842080546001818101835591865283862087516009928302909101908155938701805185840180546001600160a01b039283166001600160a01b0319918216179091559489018051600288015560608a0180516003808a019190915560808c0180519a8a019a909a5560a08c01805160058b015560c08d01805160068c015560e08e01805160078d01556101008f0180516008909d019c909c558354998a018455928d528d51989097027fc2575a0e9e593c00f959f8c92f12db2869c3395a3b0502d05e2516446f71f85b810189905595517fc2575a0e9e593c00f959f8c92f12db2869c3395a3b0502d05e2516446f71f85c870180549190961699169890981790935590517fc2575a0e9e593c00f959f8c92f12db2869c3395a3b0502d05e2516446f71f85d840155517fc2575a0e9e593c00f959f8c92f12db2869c3395a3b0502d05e2516446f71f85e83015595517fc2575a0e9e593c00f959f8c92f12db2869c3395a3b0502d05e2516446f71f85f82015592517fc2575a0e9e593c00f959f8c92f12db2869c3395a3b0502d05e2516446f71f860840155517fc2575a0e9e593c00f959f8c92f12db2869c3395a3b0502d05e2516446f71f86183015592517fc2575a0e9e593c00f959f8c92f12db2869c3395a3b0502d05e2516446f71f86282015590517fc2575a0e9e593c00f959f8c92f12db2869c3395a3b0502d05e2516446f71f86390910155610b059061040c565b825160008a81526004602090815260409182902054600254828801518489015185519687529386019290925284840186905260608501526001600160a01b0316608084015260a0830152519192507f03b58199c317c5840c831661c031b16124443ab96826ccbfc6de116e86a391d0919081900360c00190a1505050505050505050565b6040518061012001604052806000815260200160006001600160a01b0316815260200160008152602001600081526020016000815260200160008152602001600081526020016000815260200160008152509056fea165627a7a723058202739887a528f8db3267c62b28cad85b6076e760ebc8fe99669f093ff2d3455ef0029",
  "source": "// pragma solidity >=0.4.22 <0.6.0;\n// contract BigGamble {\n \n//     uint256 public numberOfBets;\n//     uint256 public totalBetAmountPlaced;\n//     struct bettor {\n//         uint selectedWizardId;\n//         address payable player;\n//         uint betAmt;\n//         uint wizardPower;\n//         uint betTimeStamp;\n//         uint powerRation;\n//         uint wizardRatio;\n//         uint standardizedBet;\n//         uint sSB;\n        \n//     }\n//     bettor[] public bettorInfo;\n\n//     event detailsOnLoad(uint wizardId,uint totalBetters,uint wizardTotalBet,uint totalBetPlaced);\n\n//     event finalWinner(uint wizardId,uint transferAmount,address playerAddress);\n\n//     // event emitDetails(unit wizardId,unit);\n//     // Address of the player and => the user info\n//     mapping (uint => bettor[]) getInfo;\n    \n//     // address of the developer to receive developer commission.\n//     address payable developer = 0x3D368Ece05FaD793f7794e0D79cA349b458271fB;\n//     constructor() public{\n       \n//     }\n   \n//     function checkPlayerExists(address playerAddress) public view returns(bool){\n//       for(uint256 i = 0; i < bettorInfo.length; i++){\n//          if(bettorInfo[i].player == playerAddress) return true;\n//       }\n//       return false;\n//    }\n   \n//     function joinTournamentByBet(address payable userAddress,uint selectedWizard, uint betAmt,uint wizardPower,uint tPWizards,uint wizardSOT,uint wizardTOB) public payable{\n       \n       \n//         // Need to add wizard information..\n//         bettor memory bInfo = bettor(0,address(0),0,0,0,0,0,0,0);\n\n//         bInfo.player = userAddress;\n//         bInfo.betAmt = betAmt;\n//         totalBetAmountPlaced += betAmt;\n//         bInfo.selectedWizardId = selectedWizard;\n//         bInfo.wizardPower = wizardPower;\n//         bInfo.betTimeStamp = now;\n//         bInfo.powerRation = calculatePowerRatio(wizardPower,tPWizards);\n//         bInfo.wizardRatio = calculateWizardRatio(wizardSOT,wizardTOB);\n//         bInfo.standardizedBet = calculateStandardizedBet(betAmt,bInfo.powerRation,bInfo.wizardRatio);\n//         if (checkPlayerExists(userAddress)){\n           \n//           bInfo.sSB += bInfo.standardizedBet;  \n//         }\n//         else{\n//            bInfo.sSB = 0;\n           \n//         }\n       \n//         getInfo[selectedWizard].push(bInfo);\n//         bettorInfo.push(bInfo);\n//         uint totalBetAmountOnThisWizard = calculateTotalBetAmoutnOnThisWizard(bInfo.selectedWizardId);\n\n//         emit detailsOnLoad(bInfo.selectedWizardId,bettorInfo.length,totalBetAmountOnThisWizard,totalBetAmountPlaced);\n\n//         emit detailsOnLoad(bInfo.selectedWizardId,bettorInfo.length,totalBetAmountOnThisWizard,totalBetAmountPlaced);\n\n//     }\n//     function calculateWizardRatio(uint wizardSOT,uint wizardTOB) public pure returns(uint){\n//         uint twizardRatio = wizardTOB/wizardSOT;\n//         return twizardRatio;\n//     }\n\n//     function calculatePowerRatio(uint wizardPower,uint tPWizards) public pure returns(uint){\n//          uint tpowerRatio = tPWizards/wizardPower;\n\n//         return tpowerRatio;\n\n//     }\n   \n//     function calculateStandardizedBet(uint betAmt,uint powerRatio,uint wizardRatio) public pure returns(uint){\n       \n//         return betAmt*powerRatio*wizardRatio;\n//     }\n   \n//     function calculateTotalBetAmoutnOnThisWizard(uint wizardId) public view returns(uint) {\n//         uint totalBetOnthisWizard;\n//         for (uint i = 0;i< getInfo[wizardId].length-1;i++){\n//          totalBetOnthisWizard += getInfo[wizardId][i].betAmt;\n//         }\n//         return totalBetOnthisWizard;\n//     }\n\n//     function distributePrizeMoney(uint wizardId) public payable{\n\n//         uint total_ether = totalBetAmountPlaced; //\n//         //commision\n//         uint commision = (total_ether*10)/100;\n//         //Reward for players to split\n//         uint total_rewards = total_ether - commision;\n\n//         for (uint i=0;i< getInfo[wizardId].length-1;i++){\n//             uint256 transferAmount = total_rewards*(getInfo[wizardId][i].standardizedBet/getInfo[wizardId][i].sSB);\n//           getInfo[wizardId][i].player.transfer(transferAmount*10000000);\n//           emit finalWinner(wizardId,transferAmount,getInfo[wizardId][i].player);\n//         }\n//         developer.transfer(commision*1000000000000000);\n       \n       \n//     }\n   \n//     function getBalance() public view returns (uint256) {\n//         return address(this).balance;\n//     }\n   \n   \n// }\n\n\npragma solidity >=0.4.22 <0.6.0;\ncontract BigGamble {\n\n    bool public prizeDistributed = false;\n \n    uint256 public numberOfBets;\n    uint256 public totalBetAmountPlaced;\n    struct bettor {\n        uint selectedWizardId;\n        address payable player;\n        uint betAmt;\n        uint wizardPower;\n        uint betTimeStamp;\n        uint powerRation;\n        uint wizardRatio;\n        uint standardizedBet;\n        uint sSB;\n       \n    }\n    bettor[] public bettorInfo;\n    event detailsOnLoad(uint wizardId,uint totalBetters,uint wizardTotalBet,uint totalBetPlaced,address player, uint betAmountOnwizard);\n\n    event finalWinner(uint wizardId,uint transferAmount,address playerAddress);\n   \n    event returnValue(uint remainder,uint quotient);\n    // Address of the player and => the user info\n    mapping (uint => bettor[]) getInfo;\n\n    event throwWizardInfo(uint wizardId,uint wizardTotalBet);\n    // address of the developer to receive developer commission.\n    address payable developer = 0x0334056F1da1F415BF410afBBcb087f120a5aBe0;\n    constructor() public{\n       \n    }\n   \n    function checkPlayerExists(address playerAddress) public view returns(bool){\n      for(uint256 i = 0; i < bettorInfo.length; i++){\n         if(bettorInfo[i].player == playerAddress) return true;\n      }\n      return false;\n   }\n   \n    function joinTournamentByBet(address payable userAddress,uint selectedWizard, uint betAmt,uint wizardPower,uint tPWizards,uint wizardSOT,uint wizardTOB) public payable{\n       \n       \n        // Need to add wizard information..\n        bettor memory bInfo = bettor(0,address(0),0,0,0,0,0,0,0);\n        bInfo.player = userAddress;\n        bInfo.betAmt = betAmt;\n        totalBetAmountPlaced += betAmt;\n        bInfo.selectedWizardId = selectedWizard;\n        bInfo.wizardPower = wizardPower;\n        bInfo.betTimeStamp = now;\n        bInfo.powerRation = percent(tPWizards,wizardPower,2);\n        bInfo.wizardRatio = percent(wizardTOB,wizardSOT,2);\n        bInfo.standardizedBet = calculateStandardizedBet(betAmt,bInfo.powerRation,bInfo.wizardRatio);\n        if (checkPlayerExists(userAddress)){\n           \n          bInfo.sSB += bInfo.standardizedBet;  \n        }\n        else{\n           bInfo.sSB = 0;\n           \n        }\n       \n        getInfo[selectedWizard].push(bInfo);\n        bettorInfo.push(bInfo);\n        uint totalBetAmountOnThisWizard = calculateTotalBetAmoutnOnThisWizard(bInfo.selectedWizardId);\n\n        emit detailsOnLoad(bInfo.selectedWizardId,getInfo[selectedWizard].length,totalBetAmountOnThisWizard,totalBetAmountPlaced,bInfo.player,bInfo.betAmt);\n\n    }\n    function calculateWizardRatio(uint wizardSOT,uint wizardTOB) public pure returns(uint){\n        uint twizardRatio = wizardTOB/wizardSOT;\n        return twizardRatio;\n    }\n\n    function getDivided(uint numerator, uint denominator) public {\n       uint quotient  = numerator / denominator;\n       uint remainder = numerator - denominator * quotient;\n        emit returnValue(remainder,quotient);\n    }\n\n    function percent(uint numerator, uint denominator, uint precision) public pure returns(uint quotient) {\n\n         // caution, check safe-to-multiply here\n        uint _numerator  = numerator * 10 ** (precision+1);\n        // with rounding of last digit\n        uint _quotient =  ((_numerator / denominator) + 5) / 10;\n        return ( _quotient);\n    }\n\n    function calculatePowerRatio(uint wizardPower,uint tPWizards) public pure returns(uint){\n         uint tpowerRatio = tPWizards/wizardPower;\n        return tpowerRatio;\n    }\n   \n    function calculateStandardizedBet(uint betAmt,uint powerRatio,uint wizardRatio) public pure returns(uint){\n       \n     //  uint256 result = mod()\n        return betAmt*powerRatio*wizardRatio;\n    }\n   \n   \n    function calculateTotalBetAmoutnOnThisWizard(uint wizardId) public view returns(uint) {\n        uint totalBetOnthisWizard;\n        for (uint i = 0;i< getInfo[wizardId].length;i++){\n         totalBetOnthisWizard += getInfo[wizardId][i].betAmt;\n        }\n        return totalBetOnthisWizard;\n    }\n   \n\n    function distributePrizeMoney(uint wizardId) public payable{\n\n        if (!prizeDistributed){\n        uint total_ether = totalBetAmountPlaced; //\n        //commision\n        uint commision = (total_ether*10)/100;\n        //Reward for players to split\n        uint total_rewards = total_ether - commision;\n\n        for (uint i=0;i< getInfo[wizardId].length-1;i++){\n            uint256 transferAmount = total_rewards*(getInfo[wizardId][i].standardizedBet/getInfo[wizardId][i].sSB);\n          getInfo[wizardId][i].player.transfer(transferAmount*10000000);\n          emit finalWinner(wizardId,transferAmount,getInfo[wizardId][i].player);\n        }\n        developer.transfer(commision*1000000000000000);\n        prizeDistributed = true;\n       }\n       \n    }\n   \n    // function getBalance() public view returns (uint256) {\n    //     return address(this).balance;\n    // }\n    function getAllInfoOfAUser(address playerAddress) public {\n       \n       for (uint i = 0;i< bettorInfo.length;i++){\n        if (bettorInfo[i].player == playerAddress) {\n            emit throwWizardInfo(bettorInfo[i].selectedWizardId,calculateTotalBetAmoutnOnThisWizard(bettorInfo[i].selectedWizardId));\n        }\n       }\n   }\n\n   \n}",
  "sourcePath": "/Users/arunraj/Desktop/BigCheezeGamble/contracts/BigGamble.sol",
  "compiler": {
    "name": "solc",
    "version": "0.5.8+commit.23d335f2.Emscripten.clang"
  },
  "schemaVersion": "3.0.15",
  "updatedAt": "2019-09-20T14:41:17.256Z",
  "devdoc": {
    "methods": {}
  },
  "userdoc": {
    "methods": {}
  }
}